:020000040800F2
:10000000780A002075020008172500088F1F0008D5
:100010000D2400086B040008AD2C0008000000004F
:100020000000000000000000000000001B25000888
:100030001D05000800000000192500081D25000806
:100040008F0200088F0200088F0200088F0200084C
:100050008F0200088F0200088F0200088F0200083C
:100060008F0200088F0200088F0200088F0200082C
:100070008F0200088F0200088F0200088F0200081C
:100080006D0400088F0200088F02000800000000C5
:100090000000000000000000000000008F020008C7
:1000A000C52500088F0200088F0200088F02000893
:1000B0008F0200088F020008E12500088F02000867
:1000C0008F0200088F0200088F0200088F020008CC
:1000D0008F020008952C0008A12C000800000000E9
:1000E0008F0200088F0200088F0200080000000045
:1000F0000000000000000000000000008F02000867
:10010000000000008F0200088F0200088F02000824
:1001100000000000000000000000000000000000DF
:100120008F0200088F0200088F0200088F0200086B
:100130008F02000800000000000000000000000026
:100140000000000000000000000000008F02000816
:100150008F0200088F0200088F0200088F0200083B
:100160008F0200088F02000800000000000000005D
:10017000000000000000000000000000000000007F
:10018000000000008F0200080000000000000000D6
:100190008F02000800F002F800F05CF80AA090E876
:1001A000000C82448344AAF10107DA4501D100F032
:1001B00051F8AFF2090EBAE80F0013F0010F18BFA3
:1001C000FB1A43F0010318475C3600007C36000040
:1001D0000A444FF0000C10F8013B13F0070408BF6D
:1001E00010F8014B1D1108BF10F8015B641E05D00B
:1001F00010F8016B641E01F8016BF9D113F0080FC0
:100200001EBF10F8014BAD1C0C1B09D16D1E58BF51
:1002100001F801CBFAD505E014F8016B01F8016B88
:100220006D1EF9D59142D6D37047000000230024FB
:1002300000250026103A28BF78C1FBD8520728BFF6
:1002400030C148BF0B6070471FB503F0D0FA1FBD27
:1002500010B510BD00F0CFF81146FFF7F5FF02F022
:1002600037FD00F0EDF803B4FFF7F2FF03BC00F038
:10027000F5F800000948804709480047FEE7FEE717
:10028000FEE7FEE7FEE7FEE7FEE7FEE7FEE7FEE746
:1002900004480549054A064B70470000B52500088B
:1002A0009501000878040020780A002078060020D4
:1002B0007806002053EA020C00F069802DE9F04B2B
:1002C0004FF00006002B1FBFB3FA83F503FA05F4C5
:1002D00024FA05F65E4012BF1643B2FA82F502FA1E
:1002E00005F4C5F120051EBF22FA05FC44EA0C0402
:1002F000203556EA044C4FEA144418BF641C4FF0F2
:1003000000084FF00009904271EB030C39D300292B
:1003100019BFB1FA81F701FA07F6B0FA80F700FACF
:1003200007F6C7F120071EBF20FA07FC46EA0C06B5
:100330002037B6FBF4FCA7EB0507103F07F01F0BB7
:10034000CBF120060CFA0BFB2CFA06F644BFB346A1
:100350000026202FA4BF5E464FF0000B5BEA060C80
:1003600008BF4FF0010B19EB0B09ABFB027C48EB0C
:100370000608C01B06FB02CC0BFB03CC71EB0C0187
:10038000C1E70B46024641464846BDE8F08B13B52F
:100390004FF000004FF00001AFF30080BDE81C40BB
:1003A00070474FF0000200B5134694469646203938
:1003B00022BFA0E80C50A0E80C50B1F12001BFF41E
:1003C000F7AF090728BFA0E80C5048BF0CC05DF884
:1003D00004EB890028BF40F8042B08BF704748BFD2
:1003E00020F8022B11F0804F18BF00F8012B704746
:1003F000704770477047754600F02CF8AE46050010
:100400006946534620F00700854618B020B5FFF72F
:100410003FFFBDE820404FF000064FF000074FF0CF
:1004200000084FF0000B21F00701AC46ACE8C00912
:10043000ACE8C009ACE8C009ACE8C0098D4670471B
:1004400010B50446AFF300802046BDE81040FFF72A
:100450000ABF00000048704714040020014918201A
:10046000ABBEFEE7260002007047FEE7014800F041
:10047000D3B80000B403002001681823CAB2103AB0
:10048000B2FBF3F2054B6FF30901032A9B5CC365D2
:1004900000D9091D81650846704700000238000830
:1004A00010B5014600208B698A6A4FF0C07453B1C1
:1004B000B3F5005F15D072B1012A0CD0022A0AD020
:1004C000032A09D104E01AB1012A06D0022A03D175
:1004D000C96AC90100D5012010BDC96AA142FAD07C
:1004E00010BD002AF7D0012AF2D0022AF3D0032A45
:1004F000F3D010BD30B50468256825F4802525604B
:10050000046863608368402B036803D099600068C7
:10051000C26030BD9A600068C16030BD704772B67D
:10052000FEE7000090F85710002259B1012908D1C8
:10053000094B196809B2002900DC4942A0F854109F
:100540001A607047054B596A09B2002900DC49421C
:10055000A0F854105A627047240400400000014083
:100560002DE9F0410446876D00F0D0FA064694F874
:1005700035000025022806D08020606584F83450BC
:100580000120BDE8F0812068016821F016010160BA
:100590002068416921F080014161206C08B9A06C9C
:1005A00020B12068016821F008010160206801681D
:1005B00021F0010101600CE000F0A8FA801B052881
:1005C00007D920206065032084F8350084F8345072
:1005D000D7E720680068C007EED194F85C103F2090
:1005E0008840B860012084F8350084F83450002039
:1005F000C7E790F83510022903D08021416501201A
:100600007047052180F835100068016821F001016C
:1006100001600020704700002DE9F84304464FF0C8
:100620000009CDF8009063484FF41651A56D00689D
:10063000B0FBF1F72E6894F85C10082000FA01F185
:1006400031420FD021680A6852070BD50A6822F0A0
:1006500004020A6094F85C108840A860606D40F065
:100660000100606594F85C104FF0010808FA01F091
:10067000304208D021684969090604D5A860606D38
:1006800040F00200606594F85C100420884030421D
:1006900008D021680968890704D5A860606D40F01A
:1006A0000400606594F85C1010208840304218D037
:1006B00021680968090714D5A86020680168490302
:1006C00004D50068000308D5A16C07E00168C905DE
:1006D00003D4016821F008010160216C09B12046B2
:1006E000884794F85C1020208840304231D021683F
:1006F0000968C9062DD5A86094F83500052820683A
:10070000016806D0490347D5006800031DD4616C19
:100710001CE021F0160101602068416921F0800190
:100720004161206C08B9A06C20B12068016821F0FB
:100730000801016094F85C103F208840A86084F8AC
:10074000358084F83490216D1FE0E16B09B12046BB
:100750008847606D00282BD0606DC00714D005203D
:1007600084F835002068016821F0010101600098DB
:10077000401C0090B84203D820680068C007F6D13A
:1007800084F8358084F83490E16C002910D001B0F1
:100790002046BDE8F04308470168C905D5D4016883
:1007A00021F01001016084F8358084F83490CCE7A2
:1007B000BDE8F8834C0100202DE9F041044600F02B
:1007C000A5F906465CB1022084F83500002584F8BE
:1007D00034502068016821F0010101600DE0012022
:1007E000BDE8F08100F092F9801B052805D9202092
:1007F0006065032084F83500F2E720680068C007D0
:10080000F0D12268116820480140D4E9010318435F
:10081000D4E903363343184363691843A369184383
:10082000E3691843236A18430843616A042903D122
:10083000D4E90B1319430843106020684069666AC5
:1008400020F0070130460E43012704280CD1A06A8E
:100850000643E06A40B12046FFF722FE20B1402067
:10086000606584F83570BAE7206846612046FFF776
:1008700003FE94F85C203F2191408160656584F817
:1008800035700020ACE700003F8010F02DE9F0410A
:100890000446866D90F83400002501280DD0012013
:1008A00084F8340094F835700020012F07D084F8C4
:1008B000340002252846BDE8F0810220FBE702272C
:1008C00084F8357060652046FFF714FE94F85C10DC
:1008D0003F208840B0602068016841F01601016047
:1008E000206C20B12068016841F008010160206897
:1008F000016841F001010160DCE7000070B50446C9
:1009000000F004F90546601C02D004480078044455
:1009100000F0FCF8401BA042FAD370BD400100205B
:100920002DE9F84FDFF8B8A10022012403254FF08C
:100930000F090AF1040BAAF1040E00BF0B6804FAB8
:1009400002F63340B34273D10F7907F00307012F4A
:1009500001D0022F16D187684FEA420805FA08FC39
:1009600027EA0C07D1F80CC00CFA08FC4CEA070C7B
:10097000C0F808C04768B7430E79C6F30016964022
:100980003E4346600E79F643B6070DD0C768560061
:1009900005FA06FC27EA0C07D1F808C00CFA06FC99
:1009A0004CEA070CC0F80CC00E7906F00306022EC4
:1009B00010D1D60800EB8608D8F8206057074FEA18
:1009C000D76C09FA0CF7BE430F6907FA0CF73743E7
:1009D000C8F8207006684FEA420C05FA0CF7BE43CF
:1009E0000F7907F0030707FA0CF7374307604E68E3
:1009F00016F4403F6DD03B4E376847F48047376070
:100A0000366822F0030706F480460096364E07EB60
:100A1000060CDCF8086897073F0F09FA07F826EA82
:100A20000806DFF8C880404503D14FF000081EE0FB
:100A30004FE0DFF8BC80404502D14FF0010816E0DE
:100A4000DFF8B080404502D14FF002080FE0DFF838
:100A5000A880404502D14FF0030808E0DFF89C80F1
:100A6000404502D14FF0040801E04FF0070808FAB2
:100A700007F848EA0608CCF80888DAF80060574614
:100A8000D1F804C09E435FEACC2C00D51E433E60E3
:100A9000DBF800605F46D1F804C09E435FEA8C2C0F
:100AA00000D51E433E60DEF800607746D1F804C0F2
:100AB0009E435FEA8C3C00D51E433E60084F083FD2
:100AC0003E68D1F804C09E435FEACC3C00D51E438B
:100AD0003E60521C102AFFF431AFBDE8F88F0000D1
:100AE000083C014044380240003001400000024010
:100AF0000004024000080240000C024000100240C6
:100B00000AB1816170470904FBE700000148806871
:100B100070470000400100200248816802781144BB
:100B200081607047400100200B4810B5016841F416
:100B300000710160016841F480610160016841F465
:100B400080710160032000F06FF80F2000F006F8BC
:100B500000F024F8002010BD003C024070B50D4D9F
:100B600004464FF47A712878B1FBF0F00A4909681D
:100B7000B1FBF0F000F00CFB48B9102C07D20022BA
:100B80002146501E00F030F800206C6070BD01203E
:100B900070BD0000400100204C0100200A4808B54B
:100BA000016841F480410160006800F480400090D9
:100BB0000548001F016841F080510160006800F0A5
:100BC0008050009008BD000044380240002809DB36
:100BD00000F01F02012191404009800000F1E02057
:100BE000C0F8001170470000F0B40E4B1B680C46B3
:100BF000C3F30223C3F10705042D00D90425191DF1
:100C0000072901D2002300E0DB1E012606FA05F1C8
:100C1000491E214099409E40761E16403143F0BC4B
:100C200002F045B80CED00E0064900F00702086844
:100C30004FF6FF03184040EA0220034A10430860C1
:100C4000704700000CED00E00000FA052DE9F047C8
:100C50000E46050065D0DFF81481D8F80000F7B221
:100C600000F00700B04207D288F80070D8F8000002
:100C700000F00700B04254D128683D4C810712D5DE
:100C8000400703D5206840F4E05020602878000732
:100C900003D5206840F4604020602068A96820F0F7
:100CA000F000084320602878C0072DD030496868DC
:100CB0000839012812D0022813D0032811D009685E
:100CC000890700292DDA216821F003010143216001
:100CD000FFF71CFF814641F2883A0EE0096889035C
:100CE000EFE709688901ECE7FFF710FFA0EB0901C6
:100CF000514502D90320BDE8F0872068696800F0FB
:100D00000C00B0EB810FEFD1D8F80010404601F095
:100D10000701B14207D90770006800F00700B04230
:100D200001D00120E7E72878400705D52068E96869
:100D300020F4E050084320602878000706D520689A
:100D4000296920F4604040EAC100206000F038F8D2
:100D50002168084AC1F30311515CC8400649086084
:100D600006480068FFF7FAFE0020C4E7003C024096
:100D7000083802400A3800084C01002044010020D5
:100D80000448054900680968044AC1F38221515C9E
:100D9000C84070474C010020083802401A3800084B
:100DA0000448054900680968044AC1F34231515CAE
:100DB000C84070474C010020083802401A3800082B
:100DC000154810B5006810F00C02144813D01449EF
:100DD000042A0FD0082A0ED10F4C241F2268236842
:100DE00002F03F025B0207D52068C0F38810A0FB29
:100DF000010106E0084610BD2168C1F38811A1FB7E
:100E000000010023FFF756FA2168C1F30141491C94
:100E10004900B0FBF1F010BD083802400024F40096
:100E200040787D012DE9F84F04006ED02078DFF87E
:100E30004C93C007A9F104054AD009F104000168E8
:100E4000C1F38101012908D00068C0F381000228A4
:100E50000AD1D9F80000400206D52868800337D5AA
:100E600060680028E1D033E06068B0F5803F10D0C2
:100E7000B0F5A02F286810D020F4803028602868B2
:100E800020F4802028606068A8B1FFF73FFE064686
:100E90000DE0286840F48030F4E740F480202860BA
:100EA000F7E700BFFFF732FE801B642873D828687D
:100EB0008003F7D50CE0FFF729FE064605E000BFEA
:100EC000FFF724FE801B6428F0D828688003F7D43D
:100ED0002078DFF8AC8280074FF0000A3ED5A748A3
:100EE000001D016811F00C0F08D00068C0F38100EC
:100EF00002280BD1D9F80000400207D428688007E7
:100F000016D5E068012800D112E033E1E068B8B1FD
:100F10000120C8F80000FFF7F9FD064605E000BF14
:100F2000FFF7F4FD801B0228C0D828688007F7D59A
:100F30002868216920F0F80040EAC10028600DE02F
:100F4000C8F800A0FFF7E2FD064604E0FFF7DEFD6B
:100F5000801B02281FD828688007F7D42078000754
:100F600022D5864F87486169703771B101210160D0
:100F7000FFF7CCFD064604E0FFF7C8FD801B022802
:100F800009D838688007F7D50EE0C0F800A0FFF751
:100F9000BDFD064605E082E0FFF7B8FD801B022894
:100FA0007DD838688007F7D42078400768D5DFF807
:100FB000CCB100270BF13C0BDBF80000C0000BD4D8
:100FC000DBF8001041F08051CBF80010DBF8000096
:100FD000012700F0805000906B4E3068C00510D49F
:100FE000306840F480703060FFF790FD009005E0BD
:100FF000FFF78CFD0099401A022850D83068C005D0
:10100000F6D55E4EA0686C3601280FD005283068F2
:1010100010D020F001003060306820F00400306013
:10102000A068B8B1FFF772FD00900FE0306840F0A3
:101030000100F4E740F004003060F7E7FFF766FDD9
:101040000099411A41F28830814266D830688007A1
:10105000F4D50EE0FFF75AFD009007E0FFF756FDCC
:101060000099411A41F28830814256D83068800791
:10107000F4D42FB1DBF8001021F08051CBF8001030
:10108000A069C8B33D49091D0968C1F3810102295E
:101090004AD00228504607D0C8F8600000E03CE083
:1010A000FFF734FD04463BE04746C8F86000FFF711
:1010B0002DFD064605E000BFFFF728FD801B022836
:1010C0002BD828688001F7D4D4E907010843A16A26
:1010D0002E4A490802EB0141626A41EA8211084343
:1010E00094F82C1040EA0161C9F80010012038661C
:1010F000FFF70CFD044606E03EE000BFFFF706FDEB
:10110000001B022809D828688001F7D534E000BF09
:10111000FFF7FCFC001B022802D90320BDE8F88F72
:1011200028688001F4D427E00128F7D0D9F800001E
:10113000E26900F4800191421CD1226A00F03F0173
:10114000914217D147F6C071626A0140B1EB821F2C
:1011500010D1A26A4FF0FF3300F4403103EB52028A
:10116000B1EB024F06D194F82C1000F07060B0EB98
:10117000016F01D00120D1E70020CFE70438024001
:1011800000004742800E4742007000400000FFFF11
:1011900010B5401EB0F1807F01D3012010BD4FF08B
:1011A000E02460610F21601701F081FD0020A06143
:1011B00007202061002010BD7047704770B590F87F
:1011C0003C20012A2CD0012480F83C40022280F8E7
:1011D0003D2003685A689D6822F070060A68324311
:1011E0005A60104B02689A420ED0B2F1804F0BD079
:1011F0000D4B9A4208D00D4B9A4205D00C4B9A42A7
:1012000002D00C4B9A4204D1496825F0800319435F
:10121000916080F83D40002180F83C10084670BD88
:10122000022070BD000001400004004000080040A2
:10123000000C00400040014010B5040003D094F8B9
:101240003D0010B107E0012010BD002084F83C00F3
:10125000204600F01FF8022084F83D00211D206880
:1012600001F0C4F9012084F8460084F83E0084F8B7
:101270003F0084F8400084F8410084F8420084F87C
:10128000430084F8440084F8450084F83D000020C1
:1012900010BD000008B501682048B1F1804F11D0A1
:1012A0001F4A914216D1016841F0040101600068B3
:1012B000002200F00400009011461E20FFF794FC6D
:1012C0001E2026E0016841F001010160006800F085
:1012D000010009E0134A914208D1016841F0080178
:1012E0000160006800F00800009008BD0E488142CF
:1012F000FBD10A48001D016841F48031016000689B
:10130000002200F48030009011461820FFF76CFC9A
:101310001820BDE80840FFF759BC000040380240E3
:1013200000080040000C00400040014070B5044639
:1013300090F83C000025012817D0012684F83C6075
:10134000022084F83D002068826822F0770222F4AF
:101350007F4282600868502838D00DDC20284FD0AA
:1013600005DC90B3102811D14AE0022070BD30286E
:1013700046D040280AD13BE060282FD070280DD0FD
:10138000B0F5805F03D0B0F5005F12D0012584F87E
:101390003D60002084F83C00284670BDCB68D1E950
:1013A0000121206801F081F92068816841F077010E
:1013B00009E0CB68D1E90121206801F076F92068C5
:1013C000816841F480418160E1E719E0CA684968B9
:1013D000206801F01FFA5021206806E0CA684968B9
:1013E000206801F028FA6021206801F068F9CEE752
:1013F000CA684968206801F00DFA40212068F4E7C6
:10140000226801461046F0E72DE9F0410D46040040
:1014100003D094F83D0018B108E00120BDE8F08148
:10142000002084F83C00204600F040F8022084F8B8
:101430003D002068816844F2070291438160211DCC
:10144000206801F0D3F8226890689169166A2B68C9
:10145000AF69034340F20330814341EA0721A868A2
:10146000EF6908434FF6FC418843E96840EA0720EA
:10147000014328692F6A000140EA07300843696880
:101480006D6926F0AA0646EA05152943936022688D
:10149000906154F8460B0162012004F81F09E075C1
:1014A0002076E0762077A0750020B7E730B587B0CA
:1014B000044614216846FEF774FF274D2368002276
:1014C000264902242648AB4226D1244B14331D68FA
:1014D00045F001051D601B6803F0010305930B68CF
:1014E00043F001030B60096801F0010105914FF41D
:1014F00040710091CDE901420121CDE90321694606
:10150000FFF70EFA002211461820FFF76DFB182096
:10151000FFF75CFB07B030BD124DAB42FAD10F4B69
:1015200010331D6845F002051D601B6803F00203BF
:1015300005930B6843F001030B60096801F001019A
:101540000591C0210091CDE90142CDE9032469460E
:10155000FFF7E6F9DEE70000000001403038024006
:10156000000002400004004070B590F83E60044660
:1015700090F83F5090F8423090F84320022021B17B
:1015800004290ED0012E1BD114E0012E18D1012BFD
:1015900016D184F83E0084F8420001220021206820
:1015A00020E0012D0CD1012A0AD184F83F0084F8F3
:1015B000430014E0012D03D1012B01D1012A01D0F8
:1015C000012070BD84F83E0084F83F0084F842009A
:1015D00084F8430001220021206801F059F801221B
:1015E0000421206801F054F82068016841F00101ED
:1015F0000160002070BD70472DE9F041044600688D
:10160000C66805694FF00007A90713D5B10711D5C2
:10161000F91E01610120207720688069800720463B
:1016200002D0FFF7E8FF04E000F0BAF8204600F02F
:101630004CF92777680716D5700714D521686FF025
:1016400004000861022020772068806910F4407F40
:10165000204602D0FFF7CFFF04E000F0A1F82046BB
:1016600000F033F92777280715D5300713D52168FF
:101670006FF008000861042020772068C0698007A7
:10168000204602D0FFF7B7FF04E000F089F82046BB
:1016900000F01BF92777E80616D5F00614D5216867
:1016A0006FF010000861082020772068C06910F4EE
:1016B000407F204602D0FFF79EFF04E000F070F864
:1016C000204600F002F92777E80708D0F00706D097
:1016D00021686FF001000861204600F04FF92806EC
:1016E00008D5300606D521686FF0800008612046D5
:1016F000FFF762FD680608D5700606D521686FF011
:1017000040000861204600F04DF9A8060AD5B00651
:1017100008D521686FF0200008612046BDE8F0413F
:10172000FFF74BBDBDE8F08170B586B004461421CB
:101730006846FEF736FE256800221649022301247A
:101740001548B5F1804F15D0144EB54210D10D6833
:1017500045F001050D6009680094CDE9013201F002
:101760000101CDE9043103924FEA0D01FFF7D8F8EA
:1017700006B070BD0D6845F001050D60096801F007
:101780000101059122210091CDE90132CDE9032427
:101790006946EBE73038024000000240000C004090
:1017A000704770B5044690F83C0000260D460128AD
:1017B0000FD0012084F83C006AB1042A1DD0082A09
:1017C0002FD00C2A3FD00126002084F83C00304660
:1017D00070BD022070BD206800F07AFF206881692A
:1017E00041F0080181612068816921F00401816173
:1017F000206881692A69114311E0206800F090FF98
:101800002068816941F4006181612068816921F467
:1018100080618161206881692A6941EA02218161D0
:10182000D2E7206800F0A8FF2068C16941F00801F4
:10183000C1612068C16921F00401C1612068C169EA
:101840002A69114311E0206800F0C2FF2068C169D5
:1018500041F40061C1612068C16921F48061C16106
:101860002068C1692A6941EA0221C161ACE710B56B
:10187000040003D094F83D0010B107E0012010BD32
:10188000002084F83C00204600F01EF8022084F876
:101890003D00211D206800F0A9FE012084F84600CB
:1018A00084F83E0084F83F0084F8400084F841004A
:1018B00084F8420084F8430084F8440084F845002A
:1018C00084F83D00002010BD7047704710B50446F5
:1018D000022249B104290ED0082913D094F84100FE
:1018E000012816D0012010BD94F83E000128F9D13E
:1018F00084F83E200FE094F83F000128F2D184F8EC
:101900003F2008E094F840000128EBD184F8402003
:1019100001E084F841200122206800F0B9FE12495C
:101920002068884203D1426C42F40042426420683D
:1019300088420ED0B0F1804F0BD00C49884208D0BD
:101940000B49884205D00B49884202D00A49884297
:1019500004D1816801F00701062903D0016841F034
:1019600001010160002010BD0000014000040040A2
:1019700000080040000C004000400140064910B53E
:10198000884207D1054800F042FDBDE810400448F8
:1019900000F03DBD10BD00004C02002030000020D2
:1019A00088000020704738B5044690F8420020288F
:1019B00001D0022038BD61B15AB10120206300205E
:1019C0006063204601F0E4F80028F3D1216B01297F
:1019D00001D0012038BD21680A684968009121685A
:1019E0000C3151E8002F42F0100241E80023002B97
:1019F000F5D138BD70B52D4A2DED048B904251D1F3
:101A00002B4C217000F0C4FA2A49002004EB40025C
:101A1000B2F9142000EE102A01EB8002401CB8EE4F
:101A2000C00A032882ED000AF0DB224E00259FED5C
:101A3000228B9FED239B0C3E04EB4500B0F90E007A
:101A400001F0F3FB53EC182B01F042FC53EC192B83
:101A500001F064FA01F07CF946F825006D1C032DB5
:101A6000EADB144900200C3104EB4002B2F91A20E1
:101A700000EE102A01EB8002401CB8EEC00A0328D9
:101A800082ED000AF0DBB06801F040FE0E4AC2E9C8
:101A900002010B22BDEC048BA11CBDE87040034881
:101AA000FFF781BFBDEC048B70BD00006C0300200C
:101AB0000A0000205C010020000000000080664059
:101AC00000000000C0FFDF40E00000207047000081
:101AD000F8B5016804460868CA684B6910F00F0F32
:101AE0004FF0000559D003F0010602F49077374318
:101AF00065D0C10705D0D10503D5616C41F0010166
:101B00006164410705D5D90703D0616C41F002013A
:101B10006164810705D5D90703D0616C41F00401E8
:101B20006164010707D502F02001314303D0616CE5
:101B300041F008016164616C00293AD0800604D547
:101B4000900602D5204600F03CFF20684069616C99
:101B5000C0F38010090700D460B3204600F0FCFEFB
:101B600020684069400621D52068143050E8001FE5
:101B700021F0400140E80012002AF5D1E06BA8B145
:101B80006E490165E06BFEF734FD002811D0E06B73
:101B9000016D01B0BDE8F040084783060FD59306FC
:101BA0000DD52046BDE8F84000F00BBF2046FFF7FA
:101BB0008DFFF8BD2046FFF789FF6564F8BD266BF1
:101BC0002023012E7DD1C6067BD5D60679D508689F
:101BD0004868009048694FF00206400641D5E16B25
:101BE000086840680004000CE8D0A28D8242E5D964
:101BF000E085C869B0F5807F2DD020680C3050E8B2
:101C0000001F21F4807140E80012002AF5D12068FD
:101C1000143050E8001F21F0010140E80012002AB2
:101C2000F5D12068143050E8001F21F0400140E851
:101C30000012002AF5D184F84230256320680C3068
:101C400050E8001F21F0100140E80012002AF5D1F1
:101C5000E06BFEF785FC6663A08DE18D401A81B2D2
:101C60002AE0A08DE18D401A81B2E08D0028A5D038
:101C70000029A3D022680C3252E8000F20F49070A3
:101C800042E80007002FF5D12068143050E8002FFB
:101C900022F0010240E80027002FF5D184F84230FD
:101CA000256320680C3050E8002F22F0100240E835
:101CB0000023002BF5D166632046FFF79BFEF8BD9D
:101CC000FFE705062BD5150629D594F841002128F4
:101CD000F5D1A068B0F5805F01D12069B0B1206A6C
:101CE000411C2162216800784860E08C401E00049D
:101CF000000CE084E3D12068C16821F08001C1605C
:101D00002068C16841F04001C160D8E7206A0088BE
:101D1000C0F308004860206A801C2062E5E74006A6
:101D2000CDD55006CBD5CA68204622F04002CA6005
:101D300084F8413000F02AF9C1E700005B28000870
:101D400070B5040004D094F84100002510B106E0FD
:101D5000012070BD84F84050204600F023F8242074
:101D600084F841002068C16821F40051C160204618
:101D700000F088FE2068016921F49041016120682B
:101D8000416921F02A0141612068C16841F4005194
:101D9000C1606564202084F8410084F842006563D6
:101DA000002070BDF0B587B0054614216846FEF7E7
:101DB000F8FA4748DFF814E1D5F800C0002406150A
:101DC000022303210727434AF44537D1404D1435F8
:101DD000D5F800C04CF0100CC5F800C02D6805F017
:101DE00010050595056845F001050560056805F0D5
:101DF00001050595056845F0020505600068CDE917
:101E0000006300F002000E46CDE90470CDE9024601
:101E10001D4669461046FEF783FD4020CDE90005CA
:101E200002AD694685E8D0002B48FEF779FD002217
:101E300011462520FEF7D8FE252043E0DFF89CE080
:101E4000F44541D1DFF888C00CF1100CDCF800E05B
:101E50004EF4003ECCF800E0DCF800C00CF4003C8E
:101E6000CDF814C0D0F800C04CF0010CC0F800C090
:101E70000068CDE9024100F0010005900C20CDE999
:101E80000003049769461046FEF74AFD154F1448B3
:101E900038604FF00060C7E90104C7E903467C6180
:101EA000BC61FC613C6238467C62FEF785FC08B18F
:101EB000FEF735FBEF63002211462620BD63FEF7D7
:101EC00093FE2620FEF782FE07B0F0BD0010014011
:101ED000303802400000024000040240004400404C
:101EE00088600240B4030020704770472DE9F84332
:101EF000044690F84100984616460D46202802D028
:101F00000220BDE8F88385B17EB100206064212005
:101F100084F84100FEF7FAFDA6848146E684A068B5
:101F20002027B0F5805F02D003E00120E9E72069B7
:101F300010B12E4600250EE000260CE08021204640
:101F400000F06EFEA8B9C6B116F8010B2168486012
:101F5000E08C401EE084E08C4B464FF00002CDF850
:101F600000800028EAD14FF04001204600F058FEE2
:101F700040B184F841700320C3E735F8020BC0F389
:101F80000800E3E784F841700020BAE77047FEE7F5
:101F90000E4801780B2910D38178427891420CD1F8
:101FA000C3780A38512BD0F80E20418A06D0522B24
:101FB00008D0532B01D1826181837047C0F81E2065
:101FC0004184704742620185704700000A0000208A
:101FD00010B54FF47A70FEF791FC0521074800F028
:101FE0000FF86420FEF78AFC04480521401D00F02C
:101FF00007F8BDE810406420FEF780BC0000002018
:102000000A4601464FF0FF330148FFF76FBF00005B
:102010006C030020094808B5016841F40011016013
:102020000068002200F40010009011461020FEF716
:10203000DBFDBDE808401020FEF7C8BD3038024087
:10204000F0B587B014216846FEF7ABF91C480024B0
:10205000016841F080010160016801F08001059193
:10206000016841F001010160016801F00101059181
:10207000016841F0020101600068124E00F00200A8
:102080000590002210213046FEF73AFD0E4F002247
:1020900001213846FEF734FD102000900125CDE9DE
:1020A0000154694630460394FEF73AFC0095CDE9A9
:1020B0000154694638460394FEF732FC07B0F0BD80
:1020C00030380240000002400004024010B58CB0DD
:1020D00024216846FEF765F900241748099415493C
:1020E0000A94C0E900144FF6FF71C0E9024104618F
:1020F000446184610320CDE900040120CDE902049C
:102100000A210491CDE90540CDE9074169460A4815
:10211000FFF77AF908B1FEF702FA099409A906480F
:102120000A94FFF74BF8002801D0FEF7F8F90CB03D
:1021300010BD0000000001407401002010B58EB0F9
:1021400000240794089409940A940B941C2168466F
:102150000C94FEF726F921484FF0804101601421CC
:10216000C0E901149F21C0E903148461FFF764F8FA
:1021700008B1FEF7D4F94FF48050079007A917482B
:10218000FFF7D4F808B1FEF7CAF91448FFF76FFB60
:1021900008B1FEF7C4F90B940BA910480C94FFF793
:1021A0000DF808B1FEF7BBF96020CDE900040294F8
:1021B0000022694609480494FFF7F3FA08B1FEF7D4
:1021C000AEF9042269460548FFF7EBFA08B1FEF7BD
:1021D000A6F90248FFF7A8FA0EB010BDBC01002016
:1021E00010B58CB024216846FEF7DBF800241648B1
:1021F000099414490A94C0E900144FF6FF71C0E92C
:102200000241046184610320CDE900040120CDE98D
:1022100002040A210491CDE90540CDE90741694650
:102220000948FFF7F1F808B1FEF779F9099409A90F
:1022300005480A94FEF7C2FF002801D0FEF76FF9A7
:102240000CB010BD000400400402002010B586B0A0
:1022500000241748009401940294039404941349B1
:10226000059401605321C0E9011442F20F71C0E9E5
:1022700003148461FEF7E0FF08B1FEF750F94FF454
:102280008050009069460A48FFF750F808B1FEF701
:1022900046F92020CDE9040404A90548FEF78EFF85
:1022A000002801D0FEF73BF906B010BD0008004041
:1022B0004C02002010B58EB00024079408940994B5
:1022C0000A940B941C2168460C94FEF76AF81F4888
:1022D0001D4901605321C0E9011444F61F61C0E9A2
:1022E00003148461FEF7A8FF08B1FEF718F94FF454
:1022F0008050079007A91548FFF718F808B1FEF7B6
:102300000EF91248FFF7B3FA08B1FEF708F90B947B
:102310000BA90E480C94FEF751FF08B1FEF7FFF829
:102320006020009040F2DB50CDE9010400226946B4
:1023300006480494FFF735FA08B1FEF7F0F80348B1
:10234000FFF7F2F90EB010BD000C0040940200201F
:102350001FB5002110480091019102910D4A03918F
:1023600002605322C0E901214CF24F32C0E903213F
:102370008161FEF761FF08B1FEF7D1F84FF480509C
:10238000009069460448FEF7D1FF002801D0FEF70F
:10239000C6F81FBD00400140DC0200200C4810B50B
:1023A0000A4901604FF4E1314160002181600C2253
:1023B000C160C0E904128161C161FFF7C1FC00285E
:1023C00003D0BDE81040FEF7AAB810BD00100140D0
:1023D000240300200C4810B50A4901604FF4E13194
:1023E0004160002181600C22C160C0E9041281615A
:1023F000C161FFF7A5FC002803D0BDE81040FEF73F
:102400008EB810BD004400406C030020FEE710B5FC
:1024100004462DED088BFEF785F894ED10BB84ED96
:1024200012BBB4F9540094F83010401A00F0FDFECD
:1024300041EC180B84ED108B94ED06AB53EC1A2B8A
:1024400000F046FF94ED0E1B53EC112B00F0B2FC94
:1024500041EC190B53EC1B2B84ED0E9B51EC180B2C
:1024600001F06AF853EC1A2B00F058FD41EC100B08
:1024700094ED041B53EC102B51EC110B00F028FFD2
:1024800094ED020B41EC1A0B53EC192B51EC100B91
:1024900000F01EFF94ED000B41EC190B53EC182BD0
:1024A00051EC100B00F014FF53EC192B00F082FCE0
:1024B00053EC1A2B00F07EFC00F088FE206500F043
:1024C000B4FE94ED081B53EC112B00F0FFFF02D279
:1024D00094ED080B0BE0206D00F0A7FE94ED0A1BB5
:1024E00053EC112B00F0B8FE06D294ED0A0B51EC20
:1024F000100B00F06BFE206594F857004FF0804100
:1025000030B1012801D1206D8863BDEC088B10BD6E
:10251000206D4863F9E7FEE770477047FEF7FCBAA5
:1025200030B593B030216846FDF73BFF14210CA86D
:10253000FDF737FF1D480025016841F0805101601B
:10254000006800F0805011901948016821F4404162
:1025500041F4004101600068022400F44040119001
:1025600001200090000401908001CDE9064019206F
:102570000890A820CDE9090404200B906846FEF7D6
:1025800051FC08B172B6FEE70CA90F2081E83100BA
:102590004FF48050CDE90F0502210CA8FEF756FB41
:1025A000002801D072B6FEE713B030BD40380240BB
:1025B000007000400248016841F4700101607047FA
:1025C00088ED00E010B50448FFF716F8BDE81040AC
:1025D0000248FFF711B8000074010020DC0200205F
:1025E0000148FFF709B800004C020020F0B502686E
:1025F000204B214C9F03214D214E984207D0B842D9
:1026000005D0A04203D0A84201D0B04204D122F0AC
:10261000700C4A6842EA0C02984210D0B8420ED0C0
:10262000A0420CD0A8420AD0B04208D0154CA0421B
:1026300005D0154CA04202D0144CA04203D122F484
:102640004074CA6822434C6922F08002224302602F
:102650008A68C2620A688262984201D1096901638C
:10266000012141610169C90703D0016921F001011C
:102670000161F0BD0000014000040040000800407E
:10268000000C00400040014000440140004801406F
:1026900010B501F01F030121046A99408C430462C4
:1026A000016A9A401143016210BD10B5846842EA84
:1026B000032224F47F440A432243826010BD8268CF
:1026C00022F070020A4342F0070181607047000067
:1026D00030B5036A026A22F001020262426884692C
:1026E00024F073050C682C4323F002058B682B4300
:1026F0000A4DA8420BD123F00805CB6822F44072A2
:102700002B434D6923F0040315438A692A43426031
:10271000846149684163036230BD000000000140EC
:1027200030B5026A036A23F01003036243688469C8
:102730000D6824F4E64444EA05248D6822F0200262
:1027400042EA05120B4DA8420ED1CD6822F080025C
:1027500042EA05124D6923F4406343EA85038D691B
:1027600022F0400243EA8503436084614968816343
:10277000026230BD0000014030B5036A026A22F4F3
:10278000807202624268C46923F4007324F0730506
:102790000C682C438D6843EA05230C4DA8420ED1EA
:1027A000CD6823F4006343EA05234D6922F44052C7
:1027B00042EA05128D6923F4806342EA0512426001
:1027C000C4614968C163036230BD0000000001407C
:1027D00030B5046A026A22F4805202624268C36918
:1027E0000D6823F4E64343EA05238D6824F400547E
:1027F00044EA0534064DA84204D14D6922F48042D2
:1028000042EA85124260C36149680164046230BDD6
:102810000000014010B5036A046A24F00104046258
:10282000846924F0F00444EA021423F00A020A4303
:102830008461026210BD10B5036A046A24F01004BA
:102840000462846923F0A00324F4704444EA023251
:1028500043EA01118261016210BD10B5806B002155
:10286000C185C184FFF732F910BD70B5846B206853
:10287000406994F84110C0F3C0100025212904D10B
:1028800018B1E584204600F08EF82068406994F87D
:102890004210C0F38010222904D118B1E5852046EA
:1028A00000F05AF8606C40F0100060642046FFF7BA
:1028B0000DF970BD10B50146806B096809684FF0CD
:1028C0000002C9052ED4C28501680C3151E8003FD1
:1028D00023F4807341E80034002CF5D101681431F1
:1028E00051E8003F23F0010341E80034002CF5D10A
:1028F0000168143151E8003F23F0400341E80034FF
:10290000002CF5D1202180F84210016B012909D15A
:1029100001680C3151E8003F23F0100341E8003416
:10292000002CF5D14263016B012902D0FFF7DCFADC
:1029300010BD818DFFF75EF810BD10B5806B0121D1
:102940004163016B012902D0FFF7CFFA10BD818DE1
:102950004908FFF74FF810BD01680C3151E8002F0E
:1029600022F4907241E80023002BF5D10168143164
:1029700051E8002F22F0010241E80023002BF5D19D
:10298000016B012909D101680C3151E8002F22F0B7
:10299000100241E80023002BF5D1202180F84210DD
:1029A00000210163704701680C3151E8002F22F0CB
:1029B000C00241E80023002BF5D1202180F841100E
:1029C000704708B590F84210222901D0022008BDB6
:1029D00082684FF480539A4201D1016921B1816A22
:1029E0009A421BD04AB10AE00268816A5268C2F377
:1029F00008020A80816A891C08E0026972B10268D3
:102A0000526802F07F020A70816A491C8162C18D9E
:102A1000491E0904090CC18503D01BE002685268F5
:102A2000F1E70168CA6822F02002CA600168CA683A
:102A300022F48072CA6001684A6922F001024A6188
:102A4000202180F8421000214163026B012A03D04B
:102A5000FFF74AFA002008BD016301680C3151E814
:102A6000002F22F0100241E80023002BF5D101686D
:102A70000A68D20602D50A6849680091818DFEF77E
:102A8000B9FFE7E770B5044600680169E26821F420
:102A90004051114301612169A068E26908436169FD
:102AA000114308432168CA6849F20C639A43024300
:102AB000CA6020684169A26921F4407111434161F3
:102AC00031492068884202D03049884202D1FEF75D
:102AD00067F901E0FEF754F9E26900231921642542
:102AE0003226B2F5004F626828D0A0FB0101930F97
:102AF0009200FDF7DFFB0146B0FBF5F06FF0180226
:102B0000504301EB800006EB0010B0FBF5F000F045
:102B1000F002B1FBF5F002EB0012B1FBF5F06FF043
:102B20001803584301EB800006EB0010B0FBF5F0F2
:102B300000F00F0021681044886070BDA0FB010107
:102B400092185B41FDF7B6FB0146B0FBF5F00201C0
:102B5000B1FBF5F06FF01803584301EB800006EB72
:102B6000C000B0FBF5F000F0F80002EB4002B1FB52
:102B7000F5F0584301EB800006EBC000B0FBF5F028
:102B800000F00700D6E700000010014000140140EB
:102B900038B5816204468285002013466064222293
:102BA00084F84220E56B1B4AEA63E56B1A4A2A6403
:102BB000E56B1A4AEA64E26B10650A462168E06B2D
:102BC000091DFDF763FE20680168406800902069D8
:102BD00048B120680C3050E8001F41F4807140E893
:102BE0000012002AF5D12068143050E8001F41F08F
:102BF000010140E80012002AF5D12068143050E8A5
:102C0000001F41F0400140E80012002AF5D10020E9
:102C100038BD0000B52800083B2900086B280008D3
:102C20002DE9F843984617460D460446089E24E0D1
:102C3000701C22D0FDF76AFFA0EB0800B0421AD842
:102C4000CEB12068C168490717D5802D15D0402D19
:102C500013D00168C94309070FD4016800254068F3
:102C600000902046FFF778FE0820606484F840500A
:102C70000120BDE8F8830320FBE72068006835EAFF
:102C8000000004D00020B842D2D00020F1E701209B
:102C9000F9E700000148FEF71BBF000024030020F5
:102CA0000148FEF715BF00006C030020FEE709078E
:102CB000090E002804DB00F1E02080F800147047C2
:102CC00000F00F0000F1E02080F8141D70470000B4
:102CD000FDF72AFFFFF724FCFFF7B2F9FFF79AF997
:102CE000FFF75CFBFFF776FBFFF7F0F9FFF726FA3B
:102CF000FFF776FAFFF7DEFAFFF72AFBFFF7A6FAEF
:102D0000FFF766F90B220C490C48FEF74CFE002138
:102D10000B48FEF7DBFD04210948FEF7D7FD3C21F7
:102D20000848FEF721FC3C210748FEF71DFC002166
:102D30000648FEF7CBFDFEE70C0000206C030020E8
:102D4000BC01002074010020040200209402002035
:102D500021F00042A2F16052B2F5801F01F0004361
:102D600028BFD2F17F6C0BD95FEA001C43EAC20294
:102D700042EB507018BF704728BF20F00100704729
:102D8000B2F5801FBCBF184670474FEA410C1CF5D6
:102D9000001F02D2084600F02FBD70B500F042FBC4
:102DA00000000089FFF7F6BF4FF00040A0F580005B
:102DB0007047000010B591EA030F48BF83F000434D
:102DC00000F1C283841A71EB030C05D2121943EB94
:102DD0000C03001B61EB0C01DFF824E14FEA1154F6
:102DE000A4EB135C1EEA430F18BF9EEA445F73D046
:102DF00023EA0E03DCF1200E21EA045143F4801390
:102E000032D322FA0CFE10EB0E0023FA0CFE41EB3B
:102E10000E01CCF1200E03FA0EFE10EB0E0051F164
:102E20000001B1F5801FCCF1200E32D201EB04512C
:102E300012FA0EF2BDE8104058BF7047401C38BF70
:102E40005FEA420218BF7047002814BF20F001005B
:102E500041F100014FEA410313F5001F38BF7047ED
:102E6000A1F1C04100F02CBB012A43EB0302ACF1FD
:102E7000200CDCF11F0E32BF4FF0000E23FA0CF3D2
:102E800010EB030041EB0451B4EB115FD0D0A1EB88
:102E9000045101F5801149085FEA300001EB04514B
:102EA0000ED350F1000038BF12FA0EFE08D1BDE873
:102EB0001040C9E7401C38BF5FEA4202CAD1C3E7ED
:102EC000BDE810404FEA410313F5001F38BF7047BB
:102ED000A1F1C04100F0F4BA9EEA445F08D011EAC3
:102EE0005E0FBDE8104004BF01F0004100207047B4
:102EF000BDE8104070B500F095FA00BF64FBBE3E1F
:102F00000000E0FF491058BFC1F140415B1058BFBD
:102F1000C3F140438B42EFF3008070472DE9C0417D
:102F200030B4DFF8A0C23CEA111418BF3CEA131415
:102F300000F0EC8081EA03051CEA111444EAD57420
:102F400018BF1CEA131500F0C780A4EB05044FF06E
:102F5000004545EAC12145EAC32341EA505143EA0D
:102F6000525304F17F74994204F500344FEAC020B3
:102F70004FEAC22208BF904200F09C804FEA1365DE
:102F80000FF24016765D4FEA134506FB05F7C7F1D1
:102F9000807706FB07F74FEAD737A7FB036876422F
:102FA000C8F58038A7FB06CE38BFA8F1010807FB9B
:102FB00008E64FF0000EA6FB028CE6FB03CEDCF128
:102FC000000CCEF1004E38BFAEF1010EA6FB0C583E
:102FD0004FF000074FF00005E6FB0E87A1FB08C687
:102FE000A0FB07CE16EB0E0645F10005E1FB0765D9
:102FF00015F1E04E7EBFA4F580345FEA46066D41D0
:1030000016F1800745F100054FEA17274FEA0666DB
:1030100047EA0567A6F1DE46B6F1805F4FEA15255F
:103020001FD9384624F0010C05EBC471BCF1FE6FCA
:1030300001EB0C1102D8F0BCBDE8008124425CBF5A
:1030400001F5801E9EEAC47F02D4F0BCBDE8008179
:10305000244238D4F0BCA1F1C041BDE8004100F0E9
:103060002FBA4FEAD22242EA43524FEAD323A7FBB8
:1030700002864FEAD02040EA415007FB03661EEA71
:103080000E0F4FEAD12105FB026658BFA6EB005692
:10309000B6EB00564FEA520E4EEAC37E18EB0E0E08
:1030A00056EB530EBDD518EB02085E417F1C55F15F
:1030B0000005B6E74FF480154FF000074FF000060B
:1030C0004FF00008ADE7F0BC4FF0000001F1C04147
:1030D00001F00041BDE8008111EA0C1F0CEA131554
:1030E00000D00CE013EA0C1F00F025804FF0000028
:1030F000F0BC81EA030101F00041BDE80081F0BCB1
:10310000BDE8004181EA030100F0DAB9F0BCBDE896
:10311000004170B500F086F9097EFC3E00F007B86A
:1031200081EA03014FF0000001F00041704781EA9D
:10313000030100F0C5B9F0BCBDE800414FF000004C
:1031400021497047FFFDFBF9F7F5F4F2F0EEEDEBE6
:10315000E9E8E6E4E3E1E0DEDDDBDAD8D7D5D4D395
:10316000D1D0CFCDCCCBCAC8C7C6C5C4C2C1C0BFE1
:10317000BEBDBCBBBAB9B8B7B6B5B4B3B2B1B0AFE7
:10318000AEADACABAAA9A8A8A7A6A5A4A3A3A2A1CB
:10319000A09F9F9E9D9C9C9B9A9999989797969586
:1031A00095949393929191908F8F8E8E8D8C8C8B22
:1031B0008B8A8989888887878685858484838382AA
:1031C000828181800000FF070000F87F4FEA410301
:1031D0004FEA5353A3F58063D3F11E03C8BFD3F165
:1031E000210C0CDD4FF0004242EAC12242EA50526B
:1031F00032FA03FC8CEAE17CACEBE1707047102BF7
:10320000C4BF0020704703F5787CBCF1FF3F04D0B9
:103210006FF0004282EA2100704770B500F002F9B9
:103220004992248000207047F2E710F0004248BF26
:103230004042B0FA80F310FA03F10AD0C3F11D0343
:1032400003F580634FEA415002EB035202EBD121B8
:1032500070474FF00000704751EA030C17D41CF57B
:10326000801F58BFBCF5801F00F10680994218BF2F
:10327000704708BF9042704707D711F5801F58BFAD
:1032800013F5801F19D499427047894270471CF585
:10329000801F08D5BCF5801FF7D58B4218BF70473B
:1032A00008BF824270474FF4001C1CEB410F38BF2F
:1032B0001CEB430F01D28B42704770B500F0B2F89F
:1032C000922449004FF000514FF08053FFF71ABE8F
:1032D000DFF848C170B51CEA111E1EBF1CEA1315A9
:1032E0009EEA0C0F95EA0C0F00F06F8081EA030450
:1032F00023EA4C134EEAD47E21EA4C1141F48011AA
:1033000043F48013AE44A1FB024CA0FB0365AEF175
:103310007F7E361955EB0C05A1FB034C4CF10003E5
:10332000A0FB021C16EB0C06654153F10003094299
:1033300018BF46F0010613F4007F0BD14FEA0331AA
:103340004FEA0530340341EA155140EA16506FF058
:1033500003020AE04FEAC3214FEAC520F40241EA22
:10336000555140EA56506FF0020202EB2E4201EB3B
:10337000025585EACE710AD05FEA440C18BF24F0EA
:10338000004450F1000041F1000120EAD47040F205
:10339000FE7C624500D270BDA84214BF4FF080444D
:1033A0004FF04044002E08BF0024BEF1806FA8BF3C
:1033B000A1F1C041BDE8704080F282804FF0000072
:1033C00001F1C04101F0004170479EEA0C0F0CEA88
:1033D000131518BF95EA0C0F06D04FF0000081EAD4
:1033E000030E0EF0004170BD00F01CF88900013E94
:1033F00000F007B800F009B84FEA430C5FEA5C5CE4
:1034000008D081EA030100F05BB84FEA410C5FEAA3
:103410005C5CF6D14FF00000014970470000FF07E7
:103420000000F87F0EF1020E2EF0030E5EF8046B22
:10343000364205D4012A43EB030515F5001F12D8C7
:10344000012841EB010C1CF5001F0CD80ED14FEAEE
:10345000D17C15F5001F0CEB4C0C0CF1020C08BFD5
:103460004CEBD37C04E04FF0080C01E04FEAD37C36
:103470000CEB4C0526FA05F606F00706B6F1040C2F
:1034800006D20EEB860CBDE870404CF0010C604794
:10349000DFE80CF0090B02024FF000414FF0000092
:1034A000A1F5002170BD19461046012851EB010419
:1034B00018BFD4F5001484BF002001F0004170BD96
:1034C0000808A0F500114FEA3101704753EA010CDA
:1034D00017D41CF5801F58BFBCF5801F00F1068073
:1034E0008B4218BF704708BF8242704707D713F559
:1034F000801F58BF11F5801F19D48B4270479B4223
:1035000070471CF5801F08D5BCF5801FF7D5994280
:1035100018BF704708BF904270474FF4001C1CEB67
:10352000430F38BF1CEB410F01D2994270470FB4D3
:103530000CBC03BCFFF7C1BE10B591EA030F48BF36
:1035400083F000433FF53EAC841A71EB030C07D2C5
:1035500012198CF0004C43EB0C03001B61EB0C01C7
:10356000DFF8A4E14FEA1154A4EB135C1EEA430F09
:1035700018BF9EEA445F00F0B08023EA6E03524217
:1035800021EA0451C3EB6E0338BF5B1EDCF1200E51
:1035900025D322FA0CFE10EB0E0043FA0CFE41EB91
:1035A0000E01CCF1200E03FA0EFE10EB0E0051F1CD
:1035B0000001CCF1200E29D412FA0EF201EB0451D5
:1035C000BDE8104058BF7047401C1CBFB2F1004F0F
:1035D000704700280CBF491C20F00100704712EB17
:1035E000020E43EB030218BF4FF0010E4EEA4202F7
:1035F000ACF1200CDCF11E0E54D943FA0CFE10EB9A
:103600000E0051F1FF31CCF11E0ED5D50EF1010E99
:1036100012FA0EFE404141EB010101EB445C5FEA0E
:103620005C5C10D910EBDE7001EB045138BFBEF1C9
:10363000004FBDE8104018BF704700280CBF491C60
:1036400020F00100704730D24FEAD42C11F5001160
:1036500024F400641BD0B1FA81F20B3AA41AA41E20
:10366000D2F12003914030FA03F31943904001EB6B
:10367000CC71002C01EB0451BDE81040A8BF70478D
:1036800001F1C0414FF0000001F000417047B0FA75
:1036900080F310FA03F100D110BDE41A173C48057D
:1036A000C90AE4E701EB045110BD491001EB0451D4
:1036B000BDE810404FEA300002E04FF000017047D3
:1036C0004A0008BF0042F8D0B2F5001F28BF70477B
:1036D00001F000414FF0000070479EEA445F07D0C0
:1036E00011EA5E0FBDE8104004BF002100207047C2
:1036F000BDE8104070B5FFF795FE00BF40DFF63E15
:1037000083F00041104670470000E0FF43004FEA9D
:10371000D30C4FEA3C0C43401FBF40070CF16051F3
:1037200013F0FE4F70471CF0006F03D100200CF027
:10373000004170470CF0004343EA507010B540EA76
:10374000CC0000F00EF800BF000000924FEA00012C
:10375000FFF7B6BE4FF000414FF00000A1F5002189
:1037600070470EF1020E2EF0030E5EF8044B244259
:1037700004D44FEA4102B2F17F4F11D84FEA40031F
:10378000B3F17F4F0CD80ED14FEAD07CB2F17F4F0E
:103790000CEB4C0C0CF1020C08BF4CEBD17C04E0A0
:1037A0004FF0080C01E04FEAD17C0CEB4C0324FAFB
:1037B00003F404F00704B4F1040C06D20EEB840CFD
:1037C000BDE810404CF0010C6047DFE80CF0070842
:1037D00002024FF00040A0F5800010BD08464200F4
:1037E00018BFD2F1807288BF00F0004010BD4FF0CA
:1037F0004070E1EE100A7047FF2141EAD050C00549
:1038000070470006101600061016000000000000A9
:10381000000001020304060708090000000001027D
:10382000030400004438000800000020500100009C
:10383000D001000874380008500100202809000059
:103840002C02000815FFAA010143FFAA023C5560A3
:10385000097B14AE47E17A843F03486440093D5830
:103860000238012B9A99015AA978091C6182101318
:0438700024F400003C
:040000050800019559
:00000001FF
